{
    "contractName": "KipuBankV3",
    "abi": [
        {
            "inputs": [
                {
                    "internalType": "uint256",
                    "name": "_bankCapUsd18",
                    "type": "uint256"
                },
                {
                    "internalType": "address",
                    "name": "_usdc",
                    "type": "address"
                },
                {
                    "internalType": "address",
                    "name": "_uniswapRouter",
                    "type": "address"
                },
                {
                    "internalType": "uint256",
                    "name": "_perUserDailyWithdrawLimitUsd18",
                    "type": "uint256"
                }
            ],
            "stateMutability": "nonpayable",
            "type": "constructor"
        },
        {
            "inputs": [],
            "name": "AccessControlBadConfirmation",
            "type": "error"
        },
        {
            "inputs": [
                {
                    "internalType": "address",
                    "name": "account",
                    "type": "address"
                },
                {
                    "internalType": "bytes32",
                    "name": "neededRole",
                    "type": "bytes32"
                }
            ],
            "name": "AccessControlUnauthorizedAccount",
            "type": "error"
        },
        {
            "inputs": [
                {
                    "internalType": "uint256",
                    "name": "attempted",
                    "type": "uint256"
                },
                {
                    "internalType": "uint256",
                    "name": "cap",
                    "type": "uint256"
                }
            ],
            "name": "BankCapExceeded",
            "type": "error"
        },
        {
            "inputs": [],
            "name": "EnforcedPause",
            "type": "error"
        },
        {
            "inputs": [],
            "name": "ExpectedPause",
            "type": "error"
        },
        {
            "inputs": [
                {
                    "internalType": "address",
                    "name": "user",
                    "type": "address"
                },
                {
                    "internalType": "uint256",
                    "name": "requested",
                    "type": "uint256"
                },
                {
                    "internalType": "uint256",
                    "name": "available",
                    "type": "uint256"
                }
            ],
            "name": "InsufficientBalance",
            "type": "error"
        },
        {
            "inputs": [
                {
                    "internalType": "address",
                    "name": "addr",
                    "type": "address"
                }
            ],
            "name": "InvalidAddress",
            "type": "error"
        },
        {
            "inputs": [
                {
                    "internalType": "uint256",
                    "name": "amount",
                    "type": "uint256"
                }
            ],
            "name": "InvalidAmount",
            "type": "error"
        },
        {
            "inputs": [
                {
                    "internalType": "address",
                    "name": "token",
                    "type": "address"
                }
            ],
            "name": "NoUSDCpair",
            "type": "error"
        },
        {
            "inputs": [],
            "name": "ReentrancyGuardReentrantCall",
            "type": "error"
        },
        {
            "inputs": [
                {
                    "internalType": "address",
                    "name": "token",
                    "type": "address"
                }
            ],
            "name": "SafeERC20FailedOperation",
            "type": "error"
        },
        {
            "inputs": [
                {
                    "internalType": "uint256",
                    "name": "expected",
                    "type": "uint256"
                },
                {
                    "internalType": "uint256",
                    "name": "received",
                    "type": "uint256"
                }
            ],
            "name": "SlippageExceeded",
            "type": "error"
        },
        {
            "inputs": [
                {
                    "internalType": "address",
                    "name": "fromToken",
                    "type": "address"
                },
                {
                    "internalType": "address",
                    "name": "toToken",
                    "type": "address"
                },
                {
                    "internalType": "uint256",
                    "name": "amountIn",
                    "type": "uint256"
                }
            ],
            "name": "SwapFailed",
            "type": "error"
        },
        {
            "inputs": [],
            "name": "Unauthorized",
            "type": "error"
        },
        {
            "inputs": [
                {
                    "internalType": "string",
                    "name": "reason",
                    "type": "string"
                }
            ],
            "name": "UnexpectedFailure",
            "type": "error"
        },
        {
            "inputs": [
                {
                    "internalType": "address",
                    "name": "token",
                    "type": "address"
                }
            ],
            "name": "UnsupportedToken",
            "type": "error"
        },
        {
            "inputs": [
                {
                    "internalType": "uint256",
                    "name": "attempted",
                    "type": "uint256"
                },
                {
                    "internalType": "uint256",
                    "name": "limit",
                    "type": "uint256"
                }
            ],
            "name": "WithdrawLimitExceeded",
            "type": "error"
        },
        {
            "anonymous": false,
            "inputs": [
                {
                    "indexed": false,
                    "internalType": "int256",
                    "name": "deltaUsd18",
                    "type": "int256"
                },
                {
                    "indexed": false,
                    "internalType": "string",
                    "name": "reason",
                    "type": "string"
                }
            ],
            "name": "AdminAdjustedTotal",
            "type": "event"
        },
        {
            "anonymous": false,
            "inputs": [
                {
                    "indexed": true,
                    "internalType": "address",
                    "name": "by",
                    "type": "address"
                },
                {
                    "indexed": false,
                    "internalType": "uint256",
                    "name": "timestamp",
                    "type": "uint256"
                }
            ],
            "name": "ContractPaused",
            "type": "event"
        },
        {
            "anonymous": false,
            "inputs": [
                {
                    "indexed": true,
                    "internalType": "address",
                    "name": "by",
                    "type": "address"
                },
                {
                    "indexed": false,
                    "internalType": "uint256",
                    "name": "timestamp",
                    "type": "uint256"
                }
            ],
            "name": "ContractResumed",
            "type": "event"
        },
        {
            "anonymous": false,
            "inputs": [
                {
                    "indexed": true,
                    "internalType": "address",
                    "name": "user",
                    "type": "address"
                },
                {
                    "indexed": true,
                    "internalType": "address",
                    "name": "token",
                    "type": "address"
                },
                {
                    "indexed": false,
                    "internalType": "uint256",
                    "name": "amountToken",
                    "type": "uint256"
                },
                {
                    "indexed": false,
                    "internalType": "uint256",
                    "name": "amountUSDC",
                    "type": "uint256"
                },
                {
                    "indexed": false,
                    "internalType": "uint256",
                    "name": "timestamp",
                    "type": "uint256"
                }
            ],
            "name": "DepositMade",
            "type": "event"
        },
        {
            "anonymous": false,
            "inputs": [
                {
                    "indexed": true,
                    "internalType": "address",
                    "name": "setter",
                    "type": "address"
                }
            ],
            "name": "IntermediariesUpdated",
            "type": "event"
        },
        {
            "anonymous": false,
            "inputs": [
                {
                    "indexed": false,
                    "internalType": "uint256",
                    "name": "newBankCap",
                    "type": "uint256"
                },
                {
                    "indexed": false,
                    "internalType": "uint256",
                    "name": "newWithdrawLimit",
                    "type": "uint256"
                }
            ],
            "name": "LimitsUpdated",
            "type": "event"
        },
        {
            "anonymous": false,
            "inputs": [
                {
                    "indexed": false,
                    "internalType": "address",
                    "name": "account",
                    "type": "address"
                }
            ],
            "name": "Paused",
            "type": "event"
        },
        {
            "anonymous": false,
            "inputs": [
                {
                    "indexed": true,
                    "internalType": "address",
                    "name": "token",
                    "type": "address"
                },
                {
                    "indexed": true,
                    "internalType": "address",
                    "name": "oldFeed",
                    "type": "address"
                },
                {
                    "indexed": true,
                    "internalType": "address",
                    "name": "newFeed",
                    "type": "address"
                }
            ],
            "name": "PriceFeedUpdated",
            "type": "event"
        },
        {
            "anonymous": false,
            "inputs": [
                {
                    "indexed": true,
                    "internalType": "address",
                    "name": "asset",
                    "type": "address"
                },
                {
                    "indexed": true,
                    "internalType": "address",
                    "name": "to",
                    "type": "address"
                },
                {
                    "indexed": false,
                    "internalType": "uint256",
                    "name": "amount",
                    "type": "uint256"
                },
                {
                    "indexed": false,
                    "internalType": "uint256",
                    "name": "timestamp",
                    "type": "uint256"
                }
            ],
            "name": "RescueExecuted",
            "type": "event"
        },
        {
            "anonymous": false,
            "inputs": [
                {
                    "indexed": true,
                    "internalType": "bytes32",
                    "name": "role",
                    "type": "bytes32"
                },
                {
                    "indexed": true,
                    "internalType": "bytes32",
                    "name": "previousAdminRole",
                    "type": "bytes32"
                },
                {
                    "indexed": true,
                    "internalType": "bytes32",
                    "name": "newAdminRole",
                    "type": "bytes32"
                }
            ],
            "name": "RoleAdminChanged",
            "type": "event"
        },
        {
            "anonymous": false,
            "inputs": [
                {
                    "indexed": true,
                    "internalType": "bytes32",
                    "name": "role",
                    "type": "bytes32"
                },
                {
                    "indexed": true,
                    "internalType": "address",
                    "name": "account",
                    "type": "address"
                },
                {
                    "indexed": true,
                    "internalType": "address",
                    "name": "sender",
                    "type": "address"
                }
            ],
            "name": "RoleGranted",
            "type": "event"
        },
        {
            "anonymous": false,
            "inputs": [
                {
                    "indexed": true,
                    "internalType": "bytes32",
                    "name": "role",
                    "type": "bytes32"
                },
                {
                    "indexed": true,
                    "internalType": "address",
                    "name": "account",
                    "type": "address"
                },
                {
                    "indexed": true,
                    "internalType": "address",
                    "name": "sender",
                    "type": "address"
                }
            ],
            "name": "RoleGrantedLog",
            "type": "event"
        },
        {
            "anonymous": false,
            "inputs": [
                {
                    "indexed": true,
                    "internalType": "bytes32",
                    "name": "role",
                    "type": "bytes32"
                },
                {
                    "indexed": true,
                    "internalType": "address",
                    "name": "account",
                    "type": "address"
                },
                {
                    "indexed": true,
                    "internalType": "address",
                    "name": "sender",
                    "type": "address"
                }
            ],
            "name": "RoleRevoked",
            "type": "event"
        },
        {
            "anonymous": false,
            "inputs": [
                {
                    "indexed": false,
                    "internalType": "uint256",
                    "name": "oldBps",
                    "type": "uint256"
                },
                {
                    "indexed": false,
                    "internalType": "uint256",
                    "name": "newBps",
                    "type": "uint256"
                }
            ],
            "name": "SlippageUpdated",
            "type": "event"
        },
        {
            "anonymous": false,
            "inputs": [
                {
                    "indexed": true,
                    "internalType": "address",
                    "name": "fromToken",
                    "type": "address"
                },
                {
                    "indexed": true,
                    "internalType": "address",
                    "name": "toToken",
                    "type": "address"
                },
                {
                    "indexed": false,
                    "internalType": "uint256",
                    "name": "amountIn",
                    "type": "uint256"
                },
                {
                    "indexed": false,
                    "internalType": "uint256",
                    "name": "amountOut",
                    "type": "uint256"
                }
            ],
            "name": "SwapExecuted",
            "type": "event"
        },
        {
            "anonymous": false,
            "inputs": [
                {
                    "indexed": true,
                    "internalType": "address",
                    "name": "token",
                    "type": "address"
                },
                {
                    "indexed": false,
                    "internalType": "bool",
                    "name": "enabled",
                    "type": "bool"
                }
            ],
            "name": "TokenStatusChanged",
            "type": "event"
        },
        {
            "anonymous": false,
            "inputs": [
                {
                    "indexed": false,
                    "internalType": "address",
                    "name": "account",
                    "type": "address"
                }
            ],
            "name": "Unpaused",
            "type": "event"
        },
        {
            "anonymous": false,
            "inputs": [
                {
                    "indexed": true,
                    "internalType": "address",
                    "name": "user",
                    "type": "address"
                },
                {
                    "indexed": true,
                    "internalType": "address",
                    "name": "token",
                    "type": "address"
                },
                {
                    "indexed": false,
                    "internalType": "uint256",
                    "name": "amountUSDC",
                    "type": "uint256"
                },
                {
                    "indexed": false,
                    "internalType": "uint256",
                    "name": "timestamp",
                    "type": "uint256"
                }
            ],
            "name": "WithdrawalMade",
            "type": "event"
        },
        {
            "stateMutability": "payable",
            "type": "fallback"
        },
        {
            "inputs": [],
            "name": "ADMIN_ROLE",
            "outputs": [
                {
                    "internalType": "bytes32",
                    "name": "",
                    "type": "bytes32"
                }
            ],
            "stateMutability": "view",
            "type": "function"
        },
        {
            "inputs": [],
            "name": "BPS_DENOMINATOR",
            "outputs": [
                {
                    "internalType": "uint16",
                    "name": "",
                    "type": "uint16"
                }
            ],
            "stateMutability": "view",
            "type": "function"
        },
        {
            "inputs": [],
            "name": "DEFAULT_ADMIN_ROLE",
            "outputs": [
                {
                    "internalType": "bytes32",
                    "name": "",
                    "type": "bytes32"
                }
            ],
            "stateMutability": "view",
            "type": "function"
        },
        {
            "inputs": [],
            "name": "ETH_ADDRESS",
            "outputs": [
                {
                    "internalType": "address",
                    "name": "",
                    "type": "address"
                }
            ],
            "stateMutability": "view",
            "type": "function"
        },
        {
            "inputs": [],
            "name": "MANAGER_ROLE",
            "outputs": [
                {
                    "internalType": "bytes32",
                    "name": "",
                    "type": "bytes32"
                }
            ],
            "stateMutability": "view",
            "type": "function"
        },
        {
            "inputs": [],
            "name": "MAX_ALLOWED_TOKEN_DECIMALS",
            "outputs": [
                {
                    "internalType": "uint8",
                    "name": "",
                    "type": "uint8"
                }
            ],
            "stateMutability": "view",
            "type": "function"
        },
        {
            "inputs": [],
            "name": "OPERATOR_ROLE",
            "outputs": [
                {
                    "internalType": "bytes32",
                    "name": "",
                    "type": "bytes32"
                }
            ],
            "stateMutability": "view",
            "type": "function"
        },
        {
            "inputs": [],
            "name": "RISK_ROLE",
            "outputs": [
                {
                    "internalType": "bytes32",
                    "name": "",
                    "type": "bytes32"
                }
            ],
            "stateMutability": "view",
            "type": "function"
        },
        {
            "inputs": [],
            "name": "USDC",
            "outputs": [
                {
                    "internalType": "address",
                    "name": "",
                    "type": "address"
                }
            ],
            "stateMutability": "view",
            "type": "function"
        },
        {
            "inputs": [],
            "name": "WETH",
            "outputs": [
                {
                    "internalType": "address",
                    "name": "",
                    "type": "address"
                }
            ],
            "stateMutability": "view",
            "type": "function"
        },
        {
            "inputs": [],
            "name": "accounting",
            "outputs": [
                {
                    "internalType": "uint256",
                    "name": "totalDepositsUsd18",
                    "type": "uint256"
                },
                {
                    "internalType": "uint256",
                    "name": "totalWithdrawalsUsd18",
                    "type": "uint256"
                },
                {
                    "internalType": "uint256",
                    "name": "totalSwapsExecuted",
                    "type": "uint256"
                },
                {
                    "internalType": "uint256",
                    "name": "totalConvertedUSDC",
                    "type": "uint256"
                },
                {
                    "internalType": "uint256",
                    "name": "lastUpdateTimestamp",
                    "type": "uint256"
                }
            ],
            "stateMutability": "view",
            "type": "function"
        },
        {
            "inputs": [
                {
                    "internalType": "int256",
                    "name": "deltaUsd18",
                    "type": "int256"
                },
                {
                    "internalType": "string",
                    "name": "reason",
                    "type": "string"
                }
            ],
            "name": "adminAdjustTotalUsd18",
            "outputs": [],
            "stateMutability": "nonpayable",
            "type": "function"
        },
        {
            "inputs": [],
            "name": "bankCapUsd18",
            "outputs": [
                {
                    "internalType": "uint256",
                    "name": "",
                    "type": "uint256"
                }
            ],
            "stateMutability": "view",
            "type": "function"
        },
        {
            "inputs": [],
            "name": "depositETH",
            "outputs": [],
            "stateMutability": "payable",
            "type": "function"
        },
        {
            "inputs": [
                {
                    "internalType": "address",
                    "name": "token",
                    "type": "address"
                },
                {
                    "internalType": "uint256",
                    "name": "amount",
                    "type": "uint256"
                }
            ],
            "name": "depositToken",
            "outputs": [],
            "stateMutability": "nonpayable",
            "type": "function"
        },
        {
            "inputs": [
                {
                    "internalType": "address",
                    "name": "token",
                    "type": "address"
                },
                {
                    "internalType": "address",
                    "name": "to",
                    "type": "address"
                },
                {
                    "internalType": "uint256",
                    "name": "amount",
                    "type": "uint256"
                }
            ],
            "name": "emergencyWithdraw",
            "outputs": [],
            "stateMutability": "nonpayable",
            "type": "function"
        },
        {
            "inputs": [
                {
                    "internalType": "bytes32",
                    "name": "role",
                    "type": "bytes32"
                }
            ],
            "name": "getRoleAdmin",
            "outputs": [
                {
                    "internalType": "bytes32",
                    "name": "",
                    "type": "bytes32"
                }
            ],
            "stateMutability": "view",
            "type": "function"
        },
        {
            "inputs": [
                {
                    "internalType": "bytes32",
                    "name": "role",
                    "type": "bytes32"
                },
                {
                    "internalType": "address",
                    "name": "account",
                    "type": "address"
                }
            ],
            "name": "grantRole",
            "outputs": [],
            "stateMutability": "nonpayable",
            "type": "function"
        },
        {
            "inputs": [
                {
                    "internalType": "bytes32",
                    "name": "role",
                    "type": "bytes32"
                },
                {
                    "internalType": "address",
                    "name": "account",
                    "type": "address"
                }
            ],
            "name": "hasRole",
            "outputs": [
                {
                    "internalType": "bool",
                    "name": "",
                    "type": "bool"
                }
            ],
            "stateMutability": "view",
            "type": "function"
        },
        {
            "inputs": [
                {
                    "internalType": "uint256",
                    "name": "",
                    "type": "uint256"
                }
            ],
            "name": "intermediaries",
            "outputs": [
                {
                    "internalType": "address",
                    "name": "",
                    "type": "address"
                }
            ],
            "stateMutability": "view",
            "type": "function"
        },
        {
            "inputs": [],
            "name": "maxPriceAgeSeconds",
            "outputs": [
                {
                    "internalType": "uint256",
                    "name": "",
                    "type": "uint256"
                }
            ],
            "stateMutability": "view",
            "type": "function"
        },
        {
            "inputs": [],
            "name": "pause",
            "outputs": [],
            "stateMutability": "nonpayable",
            "type": "function"
        },
        {
            "inputs": [],
            "name": "paused",
            "outputs": [
                {
                    "internalType": "bool",
                    "name": "",
                    "type": "bool"
                }
            ],
            "stateMutability": "view",
            "type": "function"
        },
        {
            "inputs": [],
            "name": "perUserDailyWithdrawLimitUsd18",
            "outputs": [
                {
                    "internalType": "uint256",
                    "name": "",
                    "type": "uint256"
                }
            ],
            "stateMutability": "view",
            "type": "function"
        },
        {
            "inputs": [
                {
                    "internalType": "address",
                    "name": "",
                    "type": "address"
                }
            ],
            "name": "priceFeeds",
            "outputs": [
                {
                    "internalType": "contract AggregatorV3Interface",
                    "name": "",
                    "type": "address"
                }
            ],
            "stateMutability": "view",
            "type": "function"
        },
        {
            "inputs": [
                {
                    "internalType": "address",
                    "name": "token",
                    "type": "address"
                },
                {
                    "internalType": "address",
                    "name": "feed",
                    "type": "address"
                },
                {
                    "internalType": "uint8",
                    "name": "decimals",
                    "type": "uint8"
                }
            ],
            "name": "registerToken",
            "outputs": [],
            "stateMutability": "nonpayable",
            "type": "function"
        },
        {
            "inputs": [
                {
                    "internalType": "bytes32",
                    "name": "role",
                    "type": "bytes32"
                },
                {
                    "internalType": "address",
                    "name": "callerConfirmation",
                    "type": "address"
                }
            ],
            "name": "renounceRole",
            "outputs": [],
            "stateMutability": "nonpayable",
            "type": "function"
        },
        {
            "inputs": [
                {
                    "internalType": "bytes32",
                    "name": "role",
                    "type": "bytes32"
                },
                {
                    "internalType": "address",
                    "name": "account",
                    "type": "address"
                }
            ],
            "name": "revokeRole",
            "outputs": [],
            "stateMutability": "nonpayable",
            "type": "function"
        },
        {
            "inputs": [
                {
                    "internalType": "address[]",
                    "name": "list",
                    "type": "address[]"
                }
            ],
            "name": "setIntermediaries",
            "outputs": [],
            "stateMutability": "nonpayable",
            "type": "function"
        },
        {
            "inputs": [
                {
                    "internalType": "uint256",
                    "name": "newMaxSeconds",
                    "type": "uint256"
                }
            ],
            "name": "setMaxPriceAgeSeconds",
            "outputs": [],
            "stateMutability": "nonpayable",
            "type": "function"
        },
        {
            "inputs": [
                {
                    "internalType": "uint256",
                    "name": "newLimitUsd18",
                    "type": "uint256"
                }
            ],
            "name": "setPerUserDailyWithdrawLimitUsd18",
            "outputs": [],
            "stateMutability": "nonpayable",
            "type": "function"
        },
        {
            "inputs": [
                {
                    "internalType": "uint256",
                    "name": "newBps",
                    "type": "uint256"
                }
            ],
            "name": "setSlippageBps",
            "outputs": [],
            "stateMutability": "nonpayable",
            "type": "function"
        },
        {
            "inputs": [],
            "name": "slippageBps",
            "outputs": [
                {
                    "internalType": "uint256",
                    "name": "",
                    "type": "uint256"
                }
            ],
            "stateMutability": "view",
            "type": "function"
        },
        {
            "inputs": [
                {
                    "internalType": "bytes4",
                    "name": "interfaceId",
                    "type": "bytes4"
                }
            ],
            "name": "supportsInterface",
            "outputs": [
                {
                    "internalType": "bool",
                    "name": "",
                    "type": "bool"
                }
            ],
            "stateMutability": "view",
            "type": "function"
        },
        {
            "inputs": [
                {
                    "internalType": "address",
                    "name": "",
                    "type": "address"
                }
            ],
            "name": "tokenRegistry",
            "outputs": [
                {
                    "internalType": "bool",
                    "name": "enabled",
                    "type": "bool"
                },
                {
                    "internalType": "uint8",
                    "name": "decimals",
                    "type": "uint8"
                },
                {
                    "internalType": "uint256",
                    "name": "totalDeposited",
                    "type": "uint256"
                },
                {
                    "internalType": "uint256",
                    "name": "totalConvertedUsd18",
                    "type": "uint256"
                }
            ],
            "stateMutability": "view",
            "type": "function"
        },
        {
            "inputs": [],
            "name": "totalDepositedUsd18",
            "outputs": [
                {
                    "internalType": "uint256",
                    "name": "",
                    "type": "uint256"
                }
            ],
            "stateMutability": "view",
            "type": "function"
        },
        {
            "inputs": [
                {
                    "internalType": "address",
                    "name": "to",
                    "type": "address"
                },
                {
                    "internalType": "uint256",
                    "name": "usdcRawAmount",
                    "type": "uint256"
                }
            ],
            "name": "transferInternal",
            "outputs": [],
            "stateMutability": "nonpayable",
            "type": "function"
        },
        {
            "inputs": [],
            "name": "uniswapFactory",
            "outputs": [
                {
                    "internalType": "contract IUniswapV2Factory",
                    "name": "",
                    "type": "address"
                }
            ],
            "stateMutability": "view",
            "type": "function"
        },
        {
            "inputs": [],
            "name": "uniswapRouter",
            "outputs": [
                {
                    "internalType": "contract IUniswapV2Router02",
                    "name": "",
                    "type": "address"
                }
            ],
            "stateMutability": "view",
            "type": "function"
        },
        {
            "inputs": [],
            "name": "unpause",
            "outputs": [],
            "stateMutability": "nonpayable",
            "type": "function"
        },
        {
            "inputs": [
                {
                    "internalType": "address",
                    "name": "token",
                    "type": "address"
                },
                {
                    "internalType": "address",
                    "name": "newFeed",
                    "type": "address"
                }
            ],
            "name": "updatePriceFeed",
            "outputs": [],
            "stateMutability": "nonpayable",
            "type": "function"
        },
        {
            "inputs": [
                {
                    "internalType": "address",
                    "name": "",
                    "type": "address"
                },
                {
                    "internalType": "address",
                    "name": "",
                    "type": "address"
                }
            ],
            "name": "userDeposits",
            "outputs": [
                {
                    "internalType": "uint256",
                    "name": "amountToken",
                    "type": "uint256"
                },
                {
                    "internalType": "uint256",
                    "name": "amountUSDC",
                    "type": "uint256"
                },
                {
                    "internalType": "uint256",
                    "name": "lastDeposit",
                    "type": "uint256"
                }
            ],
            "stateMutability": "view",
            "type": "function"
        },
        {
            "inputs": [
                {
                    "internalType": "address",
                    "name": "",
                    "type": "address"
                }
            ],
            "name": "userUSDCBalance",
            "outputs": [
                {
                    "internalType": "uint256",
                    "name": "",
                    "type": "uint256"
                }
            ],
            "stateMutability": "view",
            "type": "function"
        },
        {
            "inputs": [
                {
                    "internalType": "uint256",
                    "name": "usdcRawAmount",
                    "type": "uint256"
                }
            ],
            "name": "withdraw",
            "outputs": [],
            "stateMutability": "nonpayable",
            "type": "function"
        },
        {
            "stateMutability": "payable",
            "type": "receive"
        }
    ],
    "bytecode": "60e0806040523461027c57608081613379803803809161001f8285610346565b83398101031261027c578051906100386020820161037d565b9060606100476040830161037d565b9101519260017f9b779b17422d0df92223018b32b4d1fa46e071723d6817e2486d003becc55f00556101f46006556201518060075580158015610335575b8015610324575b6103115760805260c0829052600480546001600160a01b0319166001600160a01b0392909216918217815560405163c45a015560e01b815290602090829081855afa5f91816102d5575b506102ca5750600460205f925b6040516315ab88c960e31b815292839182905afa5f918161028e575b5061028857505f905b600580546001600160a01b0319166001600160a01b0392831617905560a09190915260405163313ce56760e01b8152911690602081600481855afa5f9181610246575b50610241575060065b5f91825260096020526040909120805461ffff191660089290921b61ff001691909117600117905560035561018833610391565b5061019233610407565b5061019c3361049a565b506101a63361052d565b506101b0336105c0565b5042601055604051612c659081610654823960805181818161038d0152818161097201528181610e0f015281816110360152611627015260a051818181610c5f015281816126b101526128a0015260c05181818161033e015281816107d001528181610dc901528181611107015281816115d401528181611a1f0152818161240b0152818161266201526129010152f35b610154565b9091506020813d602011610280575b8161026260209383610346565b8101031261027c575160ff8116810361027c57905f61014b565b5f80fd5b3d9150610255565b90610108565b9091506020813d6020116102c2575b816102aa60209383610346565b8101031261027c576102bb9061037d565b905f6100ff565b3d915061029d565b6020600491926100e3565b9091506020813d602011610309575b816102f160209383610346565b8101031261027c576103029061037d565b905f6100d6565b3d91506102e4565b634726455360e11b5f525f60045260245ffd5b506001600160a01b0382161561008c565b506001600160a01b03831615610085565b601f909101601f19168101906001600160401b0382119082101761036957604052565b634e487b7160e01b5f52604160045260245ffd5b51906001600160a01b038216820361027c57565b6001600160a01b0381165f9081525f5160206133595f395f51905f52602052604090205460ff16610402576001600160a01b03165f8181525f5160206133595f395f51905f5260205260408120805460ff191660011790553391905f5160206132b95f395f51905f528180a4600190565b505f90565b6001600160a01b0381165f9081525f5160206132f95f395f51905f52602052604090205460ff16610402576001600160a01b03165f8181525f5160206132f95f395f51905f5260205260408120805460ff191660011790553391907fa49807205ce4d355092ef5a8a18f56e8913cf4a201fbe287825b095693c21775905f5160206132b95f395f51905f529080a4600190565b6001600160a01b0381165f9081525f5160206133395f395f51905f52602052604090205460ff16610402576001600160a01b03165f8181525f5160206133395f395f51905f5260205260408120805460ff191660011790553391907f97667070c54ef182b0f5858b034beac1b6f3089aa2d3188bb1e8929f4fa9b929905f5160206132b95f395f51905f529080a4600190565b6001600160a01b0381165f9081525f5160206132d95f395f51905f52602052604090205460ff16610402576001600160a01b03165f8181525f5160206132d95f395f51905f5260205260408120805460ff191660011790553391907fbb4cf8e50e81e9742807782b2bc5c27c5a943f214ee0b993943eff5a774e555b905f5160206132b95f395f51905f529080a4600190565b6001600160a01b0381165f9081525f5160206133195f395f51905f52602052604090205460ff16610402576001600160a01b03165f8181525f5160206133195f395f51905f5260205260408120805460ff191660011790553391907f241ecf16d79d0f8dbfb92cbc07fe17840425976cf0667f022fe9877caa831b08905f5160206132b95f395f51905f529080a460019056fe60808060405260043610156100ab575b50361561005b5760405162461bcd60e51b815260206004820152601760248201527f46756e6374696f6e20646f6573206e6f742065786973740000000000000000006044820152606490fd5b60405162461bcd60e51b815260206004820152602260248201527f557365206465706f7369744554482829206f72206465706f736974546f6b656e604482015261282960f01b6064820152608490fd5b5f3560e01c90816301ffc9a714611bf857508063197ccc8214611bdb5780631a3ce4e614611b7d5780631a6ac5f814611b62578063248a9ca314611b305780632cfecdc614611af85780632e1a7d4d146119dc5780632f2ff15d1461199f578063338b5dea1461153c5780633426e0e7146114fa57806336568abe146114b65780633ec37ad81461146e5780633f4ba83a146113ec578063436d8039146113755780634bebc5a8146111c8578063541f631a146110a6578063578c71d9146110895780635b611f4014610f3a5780635c975abb14610f18578063735de9f714610ef057806375b238fc14610eb65780638456cb5914610e32578063852686de14610df857806389a3027114610db45780638bdb2afa14610d8c57806391d1485414610d445780639624e83e14610d055780639dcb511a14610cc5578063a0af792a14610ca8578063a217fddf14610c8e578063a734f06e14610c8e578063ad5c464814610c4a578063b7997da114610bc8578063c711c85c14610a35578063c86e7064146109fb578063d547741f146109b7578063e1a452181461099b578063e27082ba1461092a578063e63ea4081461076e578063ec87621c14610734578063f5b541a6146106fa578063f6326fb31461031b578063f95eea87146102fe5763fdd075171461029b575f61000f565b346102fa5760203660031901126102fa576001600160a01b036102bc611c4b565b165f526009602052608060405f20805490600260018201549101549060ff604051938181161515855260081c16602084015260408301526060820152f35b5f80fd5b346102fa575f3660031901126102fa576020600754604051908152f35b5f3660031901126102fa5761032e611ee8565b610336611f03565b34156106e7577f00000000000000000000000000000000000000000000000000000000000000006001600160a01b03811680159190821561050a575061037d348092611f4c565b60025461038a8282611cc0565b907f00000000000000000000000000000000000000000000000000000000000000008092116104eb575f848661045c868480526009602052600160408620016103d4348254611cc0565b90558480526009602052600260408620016103f0828254611cc0565b9055338552600a6020526040852085805260205260408520610413348254611cc0565b815560018101610424868254611cc0565b9055600242910155338552600b60205260408520610443858254611cc0565b905561045181600254611cc0565b600255600c54611cc0565b600c5561046b82600f54611cc0565b600f5582146104df5761048460ff835b16600e54611cc0565b600e5542601081905560408051348152602081019390935282015233907f4525060ee3d5d07ee4b70f0a0005a9561c3029b3c54e58f5a91a39f5801a225c9080606081015b0390a360015f516020612c105f395f51905f5255005b61048460ff600161047b565b826104f591611cc0565b6331728a0560e01b5f5260045260245260445ffd5b919061051760015f6123d3565b9060018060a01b03600454165f604051809263d06ca61f60e01b825234600483015260406024830152818061054f604482018961229b565b03915afa5f91816106cb575b5061057b5784636930176360e01b5f525f6004526024523460445260645ffd5b80515f1981019081116106935761059191612304565b516105e35f6127106105ad6105a7600654611ca3565b85611ccd565b049460018060a01b03600454166040518080958194637ff36ab560e01b83528a600484015260806024840152608483019061229b565b306044830152426064830152039134905af15f91816106a7575b5061061d5785636930176360e01b5f525f6004526024523460445260645ffd5b809592939495515f1981019081116106935761063891612304565b5193841061067c575061037d9183915f7fdd36740e2a012d93061a0d99eaa9107860955de4e90027d3cf465a055026c40760408051348152866020820152a3611f4c565b83906371c4efed60e01b5f5260045260245260445ffd5b634e487b7160e01b5f52601160045260245ffd5b6106c49192503d805f833e6106bc8183611d04565b810190612217565b90876105fd565b6106e09192503d805f833e6106bc8183611d04565b908661055b565b633728b83d60e01b5f525f60045260245ffd5b346102fa575f3660031901126102fa5760206040517f97667070c54ef182b0f5858b034beac1b6f3089aa2d3188bb1e8929f4fa9b9298152f35b346102fa575f3660031901126102fa5760206040517f241ecf16d79d0f8dbfb92cbc07fe17840425976cf0667f022fe9877caa831b088152f35b346102fa5760603660031901126102fa57610787611c4b565b61078f611c61565b60443561079a611d63565b6107a2612398565b6107aa611f03565b6001600160a01b0382169283156109175781156106e7576001600160a01b0390811692907f00000000000000000000000000000000000000000000000000000000000000001683146108c6578261089257505f80808084875af161080c611d25565b50156108565760407f53fd376d9a8b26148de4fa3711c48fea6dcf06b080ece04c946a8129ece8ef9c915b8151908152426020820152a360015f516020612c105f395f51905f5255005b604051631f200b3d60e11b8152602060048201526013602482015272115512081d1c985b9cd9995c8819985a5b1959606a1b6044820152606490fd5b816108c17f53fd376d9a8b26148de4fa3711c48fea6dcf06b080ece04c946a8129ece8ef9c9360409386612117565b610837565b604051631f200b3d60e11b815260206004820152602260248201527f43616e6e6f7420776974686472617720555344432076696120656d657267656e604482015261637960f01b6064820152608490fd5b83634726455360e11b5f5260045260245ffd5b346102fa5760203660031901126102fa577f4d4981437d0211f9e6843eb024d9ada1fa3a99514d4343d4aece106dd11524bb6040600435610969611d63565b806003558151907f000000000000000000000000000000000000000000000000000000000000000082526020820152a1005b346102fa575f3660031901126102fa5760206040516127108152f35b346102fa5760403660031901126102fa576109f96004356109d6611c61565b906109f46109ef825f525f602052600160405f20015490565b611eb0565b612318565b005b346102fa575f3660031901126102fa5760206040517fbb4cf8e50e81e9742807782b2bc5c27c5a943f214ee0b993943eff5a774e555b8152f35b346102fa5760203660031901126102fa576004356001600160401b0381116102fa57366023820112156102fa5780600401356001600160401b0381116102fa576024820191602436918360051b0101116102fa57610a91611d63565b6008545f60085580610b68575b505f5b818110610acf57337f53d40ec312547dd59347a93a34947310b6825197efd1febc4054e302b0fb04445f80a2005b6001600160a01b03610aea610ae5838587611ce0565b611cf0565b1615610b6057610afe610ae5828486611ce0565b906008549168010000000000000000831015610b4c57610b25836001809501600855611c77565b819291549060031b91858060a01b0316821b91858060a01b03901b19161790555b01610aa1565b634e487b7160e01b5f52604160045260245ffd5b600190610b46565b60085f527ff3f7a9fe364faab93b216da50a3214154f22a0a2b415b23a84c8169e8b636ee3017ff3f7a9fe364faab93b216da50a3214154f22a0a2b415b23a84c8169e8b636ee35b818110610bbd5750610a9e565b5f8155600101610bb0565b346102fa5760403660031901126102fa57610be1611c4b565b610be9611c61565b90610bf2611dd2565b6001600160a01b039081165f81815260116020526040812080546001600160a01b03198116958516958617909155909216917f749f8bd52d751fb993fa16283117f0242f19e5471f5cb26f1185d1028cd803e59080a4005b346102fa575f3660031901126102fa576040517f00000000000000000000000000000000000000000000000000000000000000006001600160a01b03168152602090f35b346102fa575f3660031901126102fa5760206040515f8152f35b346102fa575f3660031901126102fa576020600254604051908152f35b346102fa5760203660031901126102fa576001600160a01b03610ce6611c4b565b165f526011602052602060018060a01b0360405f205416604051908152f35b346102fa575f3660031901126102fa5760a0600c54600d54600e54600f5490601054926040519485526020850152604084015260608301526080820152f35b346102fa5760403660031901126102fa57610d5d611c61565b6004355f525f60205260405f209060018060a01b03165f52602052602060ff60405f2054166040519015158152f35b346102fa575f3660031901126102fa576005546040516001600160a01b039091168152602090f35b346102fa575f3660031901126102fa576040517f00000000000000000000000000000000000000000000000000000000000000006001600160a01b03168152602090f35b346102fa575f3660031901126102fa5760206040517f00000000000000000000000000000000000000000000000000000000000000008152f35b346102fa575f3660031901126102fa57610e4a611e41565b610e52611ee8565b600160ff19815416176001557f62e78cea01bee320cd4e420270b5ea74000d11b0c9f74754ebdbfc544b05a2586020604051338152a16040514281527f80170b5fcdd2bf1e0660ef4b8851f86685f64d41b1a19de1471947ece8725aac60203392a2005b346102fa575f3660031901126102fa5760206040517fa49807205ce4d355092ef5a8a18f56e8913cf4a201fbe287825b095693c217758152f35b346102fa575f3660031901126102fa576004546040516001600160a01b039091168152602090f35b346102fa575f3660031901126102fa57602060ff600154166040519015158152f35b346102fa5760403660031901126102fa576004356024356001600160401b0381116102fa57366023820112156102fa5780600401356001600160401b0381116102fa5736602482840101116102fa57610f91611d63565b5f83121561102457600160ff1b8314610693576002547fe6225a0d376ec930bb45f7c89798d674049ed925adc1ce97e2bc5daefa4538619360609290915f8390038181106110135750505f6002555b80602460405195869485526040602086015282604086015201848401375f828201840152601f01601f19168101030190a1005b61101c91611cb3565b600255610fe0565b61103083600254611cc0565b806002557f0000000000000000000000000000000000000000000000000000000000000000908181116104f55750507fe6225a0d376ec930bb45f7c89798d674049ed925adc1ce97e2bc5daefa45386192606091610fe0565b346102fa575f3660031901126102fa576020600654604051908152f35b346102fa5760403660031901126102fa576110bf611c4b565b602435906110cb611ee8565b6110d3611f03565b6001600160a01b03169081156111b55780156106e757335f52600b60205260405f205480821161119b576111318261112b817f0000000000000000000000000000000000000000000000000000000000000000611f4c565b92611cb3565b335f52600b60205260405f2055825f52600b60205260405f20611155838254611cc0565b905560405191825260208201527fdd36740e2a012d93061a0d99eaa9107860955de4e90027d3cf465a055026c40760403392a360015f516020612c105f395f51905f5255005b9063db42144d60e01b5f523360045260245260445260645ffd5b50634726455360e11b5f5260045260245ffd5b346102fa5760603660031901126102fa576111e1611c4b565b6111e9611c61565b906044359060ff82168092036102fa57611201611d63565b6001600160a01b0316918215611362576001600160a01b03169081156111b557825f52600960205260ff60405f20541661131c576024811161130a576040519060808201908282106001600160401b03831117610b4c576002916040526001835260208301908152604083015f815260608401915f8352865f52600960205260405f209451151560ff801987541691161785555161ff0085549160081b169061ff00191617845551600184015551910155815f52601160205260405f209060018060a01b03166bffffffffffffffffffffffff60a01b8254161790557f0de9c5667496fd561ff9dfa59efdc1c76f7dbf3844adae3d14a3a14d563321b1602060405160018152a2005b633728b83d60e01b5f5260045260245ffd5b604051631f200b3d60e11b815260206004820152601860248201527f746f6b656e20616c7265616479207265676973746572656400000000000000006044820152606490fd5b82634726455360e11b5f5260045260245ffd5b346102fa5760403660031901126102fa5761138e611c4b565b611396611c61565b9060018060a01b03165f52600a60205260405f209060018060a01b03165f5260205260405f2080546113e860026001840154930154604051938493846040919493926060820195825260208201520152565b0390f35b346102fa575f3660031901126102fa57611404611e41565b61140c612398565b60ff19600154166001557f5db9ee0a495bf2e6ff9c91a7834c1ba4fdd244a5e8aa4e537bd38aeae4b073aa6020604051338152a16040514281527f4f06a353c21f8bdeaac508432640cc69ee2bcacfc4ffdff470002821056bd32f60203392a2005b346102fa5760203660031901126102fa57611487611dd2565b6004356007555f80807f749f8bd52d751fb993fa16283117f0242f19e5471f5cb26f1185d1028cd803e58180a4005b346102fa5760403660031901126102fa576114cf611c61565b336001600160a01b038216036114eb576109f990600435612318565b63334bd91960e11b5f5260045ffd5b346102fa5760203660031901126102fa576004356008548110156102fa57611523602091611c77565b905460405160039290921b1c6001600160a01b03168152f35b346102fa5760403660031901126102fa57611555611c4b565b60243590611561611ee8565b611569611f03565b81156106e7576001600160a01b03811691821561136257825f52600960205260ff60405f2054161561198c576040516323b872dd60e01b5f5233600452306024528160445260205f60648180885af19060015f511482161561196b575b6040525f60605215611958577f0000000000000000000000000000000000000000000000000000000000000000915f906001600160a01b03841685811491821561177e575050611617838095611f4c565b6002546116248282611cc0565b907f000000000000000000000000000000000000000000000000000000000000000080921161175e575050917f4525060ee3d5d07ee4b70f0a0005a9561c3029b3c54e58f5a91a39f5801a225c93916117036104c994888452600960205260016040852001611694868254611cc0565b90558884526009602052600260408520016116b0828254611cc0565b9055338452600a60205260408420895f5260205260405f206116d3868254611cc0565b8155600181016116e48a8254611cc0565b9055600242910155338452600b60205260408420610443898254611cc0565b600c5561171286600f54611cc0565b600f55156117515760ff6117299116600e54611cc0565b600e554260105560405191829133954291846040919493926060820195825260208201520152565b5061172960ff600161047b565b9061176c6044938693611cc0565b6331728a0560e01b8352600452602452fd5b91909492506117905f839795976123d3565b9260018060a01b03600454169260405163d06ca61f60e01b8152886004820152604060248201525f81806117c7604482018a61229b565b0381885afa5f918161193c575b506117f457888888636930176360e01b5f5260045260245260445260645ffd5b80515f1981019081116106935761180a91612304565b5161186c5f6127106118206105a7600654611ca3565b049761182e8c83998c612966565b8b898360018060a01b036004541692604051968795869485936338ed173960e01b85526004850152602484015260a0604484015260a483019061229b565b30606483015242608483015203925af15f9181611920575b506118a457898989636930176360e01b5f5260045260245260445260645ffd5b80999799989394959698515f198101908111610693576118c391612304565b5197881061190957509186916116179350887fdd36740e2a012d93061a0d99eaa9107860955de4e90027d3cf465a055026c407604080518a8152866020820152a3611f4c565b87906371c4efed60e01b5f5260045260245260445ffd5b6119359192503d805f833e6106bc8183611d04565b908b611884565b6119519192503d805f833e6106bc8183611d04565b908a6117d4565b82635274afe760e01b5f5260045260245ffd5b90600181151661198357843b15153d151616906115c6565b503d5f823e3d90fd5b82635f8b555b60e11b5f5260045260245ffd5b346102fa5760403660031901126102fa576109f96004356119be611c61565b906119d76109ef825f525f602052600160405f20015490565b61218f565b346102fa5760203660031901126102fa576004356119f8611ee8565b611a00611f03565b80156106e757335f52600b60205260405f205480821161119b57611a867f000000000000000000000000000000000000000000000000000000000000000091611a5d84611a4d8186611f4c565b92611a588433612055565b611cb3565b335f908152600b602052604090205560025481808211611ae75750505f6002555b600d54611cc0565b600d55426010556001600160a01b031690611aa2813384612117565b6040519081524260208201527fde1d532173c6de1e3937c7af1cb92745c738980729f53ac451a725f929f3b79860403392a360015f516020612c105f395f51905f5255005b611af091611cb3565b600255611a7e565b346102fa5760203660031901126102fa576001600160a01b03611b19611c4b565b165f52600b602052602060405f2054604051908152f35b346102fa5760203660031901126102fa576020611b5a6004355f525f602052600160405f20015490565b604051908152f35b346102fa575f3660031901126102fa57602060405160248152f35b346102fa5760203660031901126102fa57600435611b99611d63565b612710811161130a5760407f07af09e2b23ebab5dd29fa2271d6ca4795031f308caf26ca605f4a719ffeed6191600654908060065582519182526020820152a1005b346102fa575f3660031901126102fa576020600354604051908152f35b346102fa5760203660031901126102fa576004359063ffffffff60e01b82168092036102fa57602091637965db0b60e01b8114908115611c3a575b5015158152f35b6301ffc9a760e01b14905083611c33565b600435906001600160a01b03821682036102fa57565b602435906001600160a01b03821682036102fa57565b600854811015611c8f5760085f5260205f2001905f90565b634e487b7160e01b5f52603260045260245ffd5b6127100390612710821161069357565b9190820391821161069357565b9190820180921161069357565b8181029291811591840414171561069357565b9190811015611c8f5760051b0190565b356001600160a01b03811681036102fa5790565b90601f801991011681019081106001600160401b03821117610b4c57604052565b3d15611d5e573d906001600160401b038211610b4c5760405191611d53601f8201601f191660200184611d04565b82523d5f602084013e565b606090565b335f9081527f7d7ffb7a348e1c6a02869081a26547b49160dd3df72d1d75a570eb9b698292ec602052604090205460ff1615611d9b57565b63e2517d3f60e01b5f52336004527fa49807205ce4d355092ef5a8a18f56e8913cf4a201fbe287825b095693c2177560245260445ffd5b335f9081527ff9574d3e2a12350873be92979003e65e56661aee19726c699dcc7d65fdbdaa10602052604090205460ff1615611e0a57565b63e2517d3f60e01b5f52336004527fbb4cf8e50e81e9742807782b2bc5c27c5a943f214ee0b993943eff5a774e555b60245260445ffd5b335f9081527fee57cd81e84075558e8fcc182a1f4393f91fc97f963a136e66b7f949a62f319f602052604090205460ff1615611e7957565b63e2517d3f60e01b5f52336004527f97667070c54ef182b0f5858b034beac1b6f3089aa2d3188bb1e8929f4fa9b92960245260445ffd5b5f8181526020818152604080832033845290915290205460ff1615611ed25750565b63e2517d3f60e01b5f523360045260245260445ffd5b60ff60015416611ef457565b63d93c066560e01b5f5260045ffd5b60025f516020612c105f395f51905f525414611f2c5760025f516020612c105f395f51905f5255565b633ee5aeb560e01b5f5260045ffd5b60ff16604d811161069357600a0a90565b6001600160a01b03165f8181526009602052604090205460081c60ff168015611fdf575b60ff16905060128103611f81575090565b6012811015611fab576012039060ff821161069357611fa2611fa892611f3b565b90611ccd565b90565b6011190160ff811161069357611fc090611f3b565b908115611fcb570490565b634e487b7160e01b5f52601260045260245ffd5b5060206004916040519283809263313ce56760e01b82525afa5f9181612017575b5061200f575060ff6012611f70565b60ff90611f70565b9091506020813d60201161204d575b8161203360209383611d04565b810103126102fa575160ff811681036102fa57905f612000565b3d9150612026565b90600354908115612112576201518042049062015180820291808304620151801490151715610693576001600160401b036120bf92169360018060a01b03165f52601260205260405f20938454816001600160401b038216036120ff575b5050835460401c611cc0565b908082116120e9575081546001600160401b031660409190911b67ffffffffffffffff1916179055565b9063016d0ef160e01b5f5260045260245260445ffd5b506001600160401b031684555f806120b3565b505050565b916040519163a9059cbb60e01b5f5260018060a01b031660045260245260205f60448180865af19060015f5114821615612177575b604052156121575750565b635274afe760e01b5f9081526001600160a01b0391909116600452602490fd5b90600181151661198357823b15153d1516169061214c565b5f818152602081815260408083206001600160a01b038616845290915290205460ff16612211575f818152602081815260408083206001600160a01b0395909516808452949091528120805460ff19166001179055339291907f2f8788117e7eff1d82e926ec794901d17c78024a50270940304540a733656f0d9080a4600190565b50505f90565b6020818303126102fa578051906001600160401b0382116102fa57019080601f830112156102fa578151916001600160401b038311610b4c578260051b9060208201936122676040519586611d04565b84526020808501928201019283116102fa57602001905b82821061228b5750505090565b815181526020918201910161227e565b90602080835192838152019201905f5b8181106122b85750505090565b82516001600160a01b03168452602093840193909201916001016122ab565b805115611c8f5760200190565b805160011015611c8f5760400190565b805160021015611c8f5760600190565b8051821015611c8f5760209160051b010190565b5f818152602081815260408083206001600160a01b038616845290915290205460ff1615612211575f818152602081815260408083206001600160a01b0395909516808452949091528120805460ff19169055339291907ff6391f5c32d9c69d2a47ea670b442974b53935d1edc7fd64eb21e047a839171b9080a4600190565b60ff60015416156123a557565b638dfc202b60e01b5f5260045ffd5b908160209103126102fa57516001600160a01b03811681036102fa5790565b919060609061289c57506005546001600160a01b031680151580612643575b60085460045490926080926001600160a01b03928316927f0000000000000000000000000000000000000000000000000000000000000000908116926060915f5b88811061245857638a42187d60e01b5f9081526001600160a01b038c16600452602490fd5b61246181611c77565b905460039190911b1c6001600160a01b03168b86821561263857908291612534575b5050604051906124938a83611d04565b60038252853660208401376124a7826122d7565b6001600160a01b038e1690526124bc826122e4565b52866124c7826122f4565b5260405163d06ca61f60e01b815260016004820152604060248201525f81806124f3604482018661229b565b03818c5afa908161251c575b5061250f57506001905b01612433565b9a50505050505050505050565b61252f903d805f833e6106bc8183611d04565b6124ff565b60405163e6a4390560e01b81526001600160a01b03918216600482015291166024820152602081604481885afa90811561260f575f9161261a575b506001600160a01b0316158015612595575b61258c57808c612483565b50600190612509565b5060405163e6a4390560e01b81526001600160a01b03828116600483015284166024820152602081604481885afa90811561260f575f916125e1575b506001600160a01b031615612581565b612602915060203d8111612608575b6125fa8183611d04565b8101906123b4565b5f6125d1565b503d6125f0565b6040513d5f823e3d90fd5b612632915060203d8111612608576125fa8183611d04565b5f61256f565b505050600190612509565b60405163e6a4390560e01b81526001600160a01b0385811660048301527f0000000000000000000000000000000000000000000000000000000000000000908116602483015290602081604481875afa90811561260f575f9161287d575b506001600160a01b031661283d577f00000000000000000000000000000000000000000000000000000000000000006001600160a01b03811690816126e9575b5050506123f2565b60405163e6a4390560e01b81526001600160a01b0388811660048301528216602482015290602082604481895afa801561260f578461275e935f9261281d575b5060405163e6a4390560e01b81526001600160a01b039384166004820152921660248301529091602090839081906044820190565b0381895afa91821561260f575f926127fc575b506001600160a01b0316151590816127e9575b5061278f57806126e1565b604051949591935091506127a4608085611d04565b6003845260603660208601376127b9846122d7565b6001600160a01b0390911690526127cf836122e4565b526127d9826122f4565b6001600160a01b03909116905290565b6001600160a01b0316151590505f612784565b61281691925060203d602011612608576125fa8183611d04565b905f612771565b6020925061283790833d8511612608576125fa8183611d04565b91612729565b60405193949092509050612852606084611d04565b600283526040366020850137612867836122d7565b6001600160a01b0390911690526127d9826122e4565b612896915060203d602011612608576125fa8183611d04565b5f6126a1565b90917f00000000000000000000000000000000000000000000000000000000000000006001600160a01b031690811561292e5750604051916128de8184611d04565b60028352601f19013660208401376128f5826122d7565b526128ff816122e4565b7f00000000000000000000000000000000000000000000000000000000000000006001600160a01b0316905290565b638a42187d60e01b5f9081526001600160a01b0391909116600452602490fd5b908160209103126102fa575180151581036102fa5790565b604051636eb1769f60e11b81523060048201526001600160a01b03838116602483015292939190921691602081604481865afa90811561260f575f91612bdd575b5081811015612ba8575f806129c56129bf8486611cb3565b84611cc0565b60405163095ea7b360e01b602082019081526001600160a01b03891660248301526044820192909252612a0581606481015b03601f198101835282611d04565b519082875af1612a13611d25565b81612bae575b50612ba857612ae8575b60405163095ea7b360e01b602082019081526001600160a01b03909416602482015260448101919091525f928392918390612a6181606481016129f7565b51925af1612a6d611d25565b81612ab9575b5015612a7b57565b60405162461bcd60e51b8152602060048201526016602482015275185c1c1c9bdd994a185b5bdd5b9d0a4819985a5b195960521b6044820152606490fd5b8051801592508215612ace575b50505f612a73565b612ae1925060208091830101910161294e565b5f80612ac6565b905f80604051602081019063095ea7b360e01b825260018060a01b038716602482015282604482015260448152612b20606482611d04565b519082855af1612b2e611d25565b81612b79575b5015612b405790612a23565b60405162461bcd60e51b8152602060048201526011602482015270185c1c1c9bdd994a0c0a4819985a5b1959607a1b6044820152606490fd5b8051801592508215612b8e575b50505f612b34565b612ba1925060208091830101910161294e565b5f80612b86565b50505050565b8051801592508215612bc3575b50505f612a19565b612bd6925060208091830101910161294e565b5f80612bbb565b90506020813d602011612c07575b81612bf860209383611d04565b810103126102fa57515f6129a7565b3d9150612beb56fe9b779b17422d0df92223018b32b4d1fa46e071723d6817e2486d003becc55f00a2646970667358221220f473fa243d08ba64be408abf5749c286b40f885ce4836224bf81a8908e936fd664736f6c634300081e00332f8788117e7eff1d82e926ec794901d17c78024a50270940304540a733656f0df9574d3e2a12350873be92979003e65e56661aee19726c699dcc7d65fdbdaa107d7ffb7a348e1c6a02869081a26547b49160dd3df72d1d75a570eb9b698292ece84508f2c7fa9c351146748b3025cb78b45df37d868e48c6a75102fecdeee645ee57cd81e84075558e8fcc182a1f4393f91fc97f963a136e66b7f949a62f319fad3228b676f7d3cd4284a5443f17f1962b36e491b30a40b2405849e597ba5fb5",
    "sourcePath": "c:/Users/sofia/OneDrive/Desktop/eth-kipu/eth-Kipu/Cuarta EntregA/src/kipubankV3.sol",
    "compiler": {
        "name": "solc",
        "version": "0.8.30+commit.73712a01"
    },
    "functionHashes": {
        "ADMIN_ROLE()": "75b238fc",
        "BPS_DENOMINATOR()": "e1a45218",
        "DEFAULT_ADMIN_ROLE()": "a217fddf",
        "ETH_ADDRESS()": "a734f06e",
        "MANAGER_ROLE()": "ec87621c",
        "MAX_ALLOWED_TOKEN_DECIMALS()": "1a6ac5f8",
        "OPERATOR_ROLE()": "f5b541a6",
        "RISK_ROLE()": "c86e7064",
        "USDC()": "89a30271",
        "WETH()": "ad5c4648",
        "accounting()": "9624e83e",
        "adminAdjustTotalUsd18(int256,string)": "5b611f40",
        "bankCapUsd18()": "852686de",
        "depositETH()": "f6326fb3",
        "depositToken(address,uint256)": "338b5dea",
        "emergencyWithdraw(address,address,uint256)": "e63ea408",
        "getRoleAdmin(bytes32)": "248a9ca3",
        "grantRole(bytes32,address)": "2f2ff15d",
        "hasRole(bytes32,address)": "91d14854",
        "intermediaries(uint256)": "3426e0e7",
        "maxPriceAgeSeconds()": "f95eea87",
        "pause()": "8456cb59",
        "paused()": "5c975abb",
        "perUserDailyWithdrawLimitUsd18()": "197ccc82",
        "priceFeeds(address)": "9dcb511a",
        "registerToken(address,address,uint8)": "4bebc5a8",
        "renounceRole(bytes32,address)": "36568abe",
        "revokeRole(bytes32,address)": "d547741f",
        "setIntermediaries(address[])": "c711c85c",
        "setMaxPriceAgeSeconds(uint256)": "3ec37ad8",
        "setPerUserDailyWithdrawLimitUsd18(uint256)": "e27082ba",
        "setSlippageBps(uint256)": "1a3ce4e6",
        "slippageBps()": "578c71d9",
        "supportsInterface(bytes4)": "01ffc9a7",
        "tokenRegistry(address)": "fdd07517",
        "totalDepositedUsd18()": "a0af792a",
        "transferInternal(address,uint256)": "541f631a",
        "uniswapFactory()": "8bdb2afa",
        "uniswapRouter()": "735de9f7",
        "unpause()": "3f4ba83a",
        "updatePriceFeed(address,address)": "b7997da1",
        "userDeposits(address,address)": "436d8039",
        "userUSDCBalance(address)": "2cfecdc6",
        "withdraw(uint256)": "2e1a7d4d"
    },
    "gasEstimates": {
        "creation": {
            "codeDepositCost": "2273000",
            "executionCost": "infinite",
            "totalCost": "infinite"
        },
        "external": {
            "": "1173",
            "ADMIN_ROLE()": "593",
            "BPS_DENOMINATOR()": "945",
            "DEFAULT_ADMIN_ROLE()": "790",
            "ETH_ADDRESS()": "812",
            "MANAGER_ROLE()": "1011",
            "MAX_ALLOWED_TOKEN_DECIMALS()": "219",
            "OPERATOR_ROLE()": "1033",
            "RISK_ROLE()": "901",
            "USDC()": "infinite",
            "WETH()": "infinite",
            "accounting()": "11306",
            "adminAdjustTotalUsd18(int256,string)": "infinite",
            "bankCapUsd18()": "infinite",
            "depositETH()": "infinite",
            "depositToken(address,uint256)": "infinite",
            "emergencyWithdraw(address,address,uint256)": "infinite",
            "getRoleAdmin(bytes32)": "2429",
            "grantRole(bytes32,address)": "33421",
            "hasRole(bytes32,address)": "3034",
            "intermediaries(uint256)": "6831",
            "maxPriceAgeSeconds()": "3180",
            "pause()": "31612",
            "paused()": "2664",
            "perUserDailyWithdrawLimitUsd18()": "2278",
            "priceFeeds(address)": "3018",
            "registerToken(address,address,uint8)": "89560",
            "renounceRole(bytes32,address)": "29055",
            "revokeRole(bytes32,address)": "34034",
            "setIntermediaries(address[])": "infinite",
            "setMaxPriceAgeSeconds(uint256)": "26589",
            "setPerUserDailyWithdrawLimitUsd18(uint256)": "infinite",
            "setSlippageBps(uint256)": "27937",
            "slippageBps()": "2608",
            "supportsInterface(bytes4)": "270",
            "tokenRegistry(address)": "7648",
            "totalDepositedUsd18()": "2872",
            "transferInternal(address,uint256)": "infinite",
            "uniswapFactory()": "2808",
            "uniswapRouter()": "2698",
            "unpause()": "31411",
            "updatePriceFeed(address,address)": "29438",
            "userDeposits(address,address)": "7143",
            "userUSDCBalance(address)": "2516",
            "withdraw(uint256)": "infinite"
        },
        "internal": {
            "_addTokenInternal(address,address,uint8)": "infinite",
            "_buildAndValidatePath(address,bool)": "infinite",
            "_consumeWithdrawLimit(address,uint256)": "53051",
            "_currentDay()": "infinite",
            "_depositCore(address,uint256,bool)": "infinite",
            "_ensureAllowance(contract IERC20,address,uint256)": "infinite",
            "_toUsd18(address,uint256)": "infinite"
        }
    }
}